{
  "_format": "hh-sol-artifact-1",
  "contractName": "Semaphore",
  "sourceName": "contracts/Semaphore.sol",
  "abi": [
    {
      "inputs": [
        {
          "components": [
            {
              "internalType": "address",
              "name": "contractAddress",
              "type": "address"
            },
            {
              "internalType": "uint8",
              "name": "merkleTreeDepth",
              "type": "uint8"
            }
          ],
          "internalType": "struct ISemaphore.Verifier[]",
          "name": "_verifiers",
          "type": "tuple[]"
        }
      ],
      "stateMutability": "nonpayable",
      "type": "constructor"
    },
    {
      "inputs": [],
      "name": "Semaphore__CallerIsNotTheGroupAdmin",
      "type": "error"
    },
    {
      "inputs": [],
      "name": "Semaphore__GroupAlreadyExists",
      "type": "error"
    },
    {
      "inputs": [],
      "name": "Semaphore__GroupDoesNotExist",
      "type": "error"
    },
    {
      "inputs": [],
      "name": "Semaphore__GroupIdIsNotLessThanSnarkScalarField",
      "type": "error"
    },
    {
      "inputs": [],
      "name": "Semaphore__TreeDepthIsNotSupported",
      "type": "error"
    },
    {
      "inputs": [],
      "name": "Semaphore__YouAreUsingTheSameNillifierTwice",
      "type": "error"
    },
    {
      "anonymous": false,
      "inputs": [
        {
          "indexed": true,
          "internalType": "uint256",
          "name": "groupId",
          "type": "uint256"
        },
        {
          "indexed": true,
          "internalType": "address",
          "name": "oldAdmin",
          "type": "address"
        },
        {
          "indexed": true,
          "internalType": "address",
          "name": "newAdmin",
          "type": "address"
        }
      ],
      "name": "GroupAdminUpdated",
      "type": "event"
    },
    {
      "anonymous": false,
      "inputs": [
        {
          "indexed": true,
          "internalType": "uint256",
          "name": "groupId",
          "type": "uint256"
        },
        {
          "indexed": false,
          "internalType": "uint8",
          "name": "depth",
          "type": "uint8"
        },
        {
          "indexed": false,
          "internalType": "uint256",
          "name": "zeroValue",
          "type": "uint256"
        }
      ],
      "name": "GroupCreated",
      "type": "event"
    },
    {
      "anonymous": false,
      "inputs": [
        {
          "indexed": true,
          "internalType": "uint256",
          "name": "groupId",
          "type": "uint256"
        },
        {
          "indexed": false,
          "internalType": "uint256",
          "name": "identityCommitment",
          "type": "uint256"
        },
        {
          "indexed": false,
          "internalType": "uint256",
          "name": "root",
          "type": "uint256"
        }
      ],
      "name": "MemberAdded",
      "type": "event"
    },
    {
      "anonymous": false,
      "inputs": [
        {
          "indexed": true,
          "internalType": "uint256",
          "name": "groupId",
          "type": "uint256"
        },
        {
          "indexed": false,
          "internalType": "uint256",
          "name": "identityCommitment",
          "type": "uint256"
        },
        {
          "indexed": false,
          "internalType": "uint256",
          "name": "root",
          "type": "uint256"
        }
      ],
      "name": "MemberRemoved",
      "type": "event"
    },
    {
      "anonymous": false,
      "inputs": [
        {
          "indexed": false,
          "internalType": "uint256",
          "name": "nullifierHash",
          "type": "uint256"
        }
      ],
      "name": "NullifierHashAdded",
      "type": "event"
    },
    {
      "anonymous": false,
      "inputs": [
        {
          "indexed": true,
          "internalType": "uint256",
          "name": "groupId",
          "type": "uint256"
        },
        {
          "indexed": false,
          "internalType": "bytes32",
          "name": "signal",
          "type": "bytes32"
        }
      ],
      "name": "ProofVerified",
      "type": "event"
    },
    {
      "inputs": [
        {
          "internalType": "uint256",
          "name": "groupId",
          "type": "uint256"
        },
        {
          "internalType": "uint256",
          "name": "identityCommitment",
          "type": "uint256"
        }
      ],
      "name": "addMember",
      "outputs": [],
      "stateMutability": "nonpayable",
      "type": "function"
    },
    {
      "inputs": [
        {
          "internalType": "uint256",
          "name": "groupId",
          "type": "uint256"
        },
        {
          "internalType": "uint8",
          "name": "depth",
          "type": "uint8"
        },
        {
          "internalType": "uint256",
          "name": "zeroValue",
          "type": "uint256"
        },
        {
          "internalType": "address",
          "name": "admin",
          "type": "address"
        }
      ],
      "name": "createGroup",
      "outputs": [],
      "stateMutability": "nonpayable",
      "type": "function"
    },
    {
      "inputs": [
        {
          "internalType": "uint256",
          "name": "groupId",
          "type": "uint256"
        }
      ],
      "name": "getDepth",
      "outputs": [
        {
          "internalType": "uint8",
          "name": "",
          "type": "uint8"
        }
      ],
      "stateMutability": "view",
      "type": "function"
    },
    {
      "inputs": [
        {
          "internalType": "uint256",
          "name": "groupId",
          "type": "uint256"
        }
      ],
      "name": "getNumberOfLeaves",
      "outputs": [
        {
          "internalType": "uint256",
          "name": "",
          "type": "uint256"
        }
      ],
      "stateMutability": "view",
      "type": "function"
    },
    {
      "inputs": [
        {
          "internalType": "uint256",
          "name": "groupId",
          "type": "uint256"
        }
      ],
      "name": "getRoot",
      "outputs": [
        {
          "internalType": "uint256",
          "name": "",
          "type": "uint256"
        }
      ],
      "stateMutability": "view",
      "type": "function"
    },
    {
      "inputs": [
        {
          "internalType": "uint256",
          "name": "",
          "type": "uint256"
        }
      ],
      "name": "groupAdmins",
      "outputs": [
        {
          "internalType": "address",
          "name": "",
          "type": "address"
        }
      ],
      "stateMutability": "view",
      "type": "function"
    },
    {
      "inputs": [
        {
          "internalType": "uint256",
          "name": "groupId",
          "type": "uint256"
        },
        {
          "internalType": "uint256",
          "name": "identityCommitment",
          "type": "uint256"
        },
        {
          "internalType": "uint256[]",
          "name": "proofSiblings",
          "type": "uint256[]"
        },
        {
          "internalType": "uint8[]",
          "name": "proofPathIndices",
          "type": "uint8[]"
        }
      ],
      "name": "removeMember",
      "outputs": [],
      "stateMutability": "nonpayable",
      "type": "function"
    },
    {
      "inputs": [
        {
          "internalType": "uint256",
          "name": "groupId",
          "type": "uint256"
        },
        {
          "internalType": "address",
          "name": "newAdmin",
          "type": "address"
        }
      ],
      "name": "updateGroupAdmin",
      "outputs": [],
      "stateMutability": "nonpayable",
      "type": "function"
    },
    {
      "inputs": [
        {
          "internalType": "uint8",
          "name": "",
          "type": "uint8"
        }
      ],
      "name": "verifiers",
      "outputs": [
        {
          "internalType": "contract IVerifier",
          "name": "",
          "type": "address"
        }
      ],
      "stateMutability": "view",
      "type": "function"
    },
    {
      "inputs": [
        {
          "internalType": "uint256",
          "name": "groupId",
          "type": "uint256"
        },
        {
          "internalType": "bytes32",
          "name": "signal",
          "type": "bytes32"
        },
        {
          "internalType": "uint256",
          "name": "nullifierHash",
          "type": "uint256"
        },
        {
          "internalType": "uint256",
          "name": "externalNullifier",
          "type": "uint256"
        },
        {
          "internalType": "uint256[8]",
          "name": "proof",
          "type": "uint256[8]"
        }
      ],
      "name": "verifyProof",
      "outputs": [],
      "stateMutability": "nonpayable",
      "type": "function"
    }
  ],
  "bytecode": "0x60806040523480156200001157600080fd5b5060405162001de438038062001de4833981810160405281019062000037919062000270565b60005b81518160ff1610156200014557818160ff168151811062000084577f4e487b7100000000000000000000000000000000000000000000000000000000600052603260045260246000fd5b60200260200101516000015160026000848460ff1681518110620000d1577f4e487b7100000000000000000000000000000000000000000000000000000000600052603260045260246000fd5b60200260200101516020015160ff1660ff16815260200190815260200160002060006101000a81548173ffffffffffffffffffffffffffffffffffffffff021916908373ffffffffffffffffffffffffffffffffffffffff16021790555080806200013c9062000384565b9150506200003a565b505062000456565b6000620001646200015e84620002de565b620002b5565b905080838252602082019050828560408602820111156200018457600080fd5b60005b85811015620001b857816200019d888262000206565b84526020840193506040830192505060018101905062000187565b5050509392505050565b600081519050620001d38162000422565b92915050565b600082601f830112620001eb57600080fd5b8151620001fd8482602086016200014d565b91505092915050565b6000604082840312156200021957600080fd5b620002256040620002b5565b905060006200023784828501620001c2565b60008301525060206200024d8482850162000259565b60208301525092915050565b6000815190506200026a816200043c565b92915050565b6000602082840312156200028357600080fd5b600082015167ffffffffffffffff8111156200029e57600080fd5b620002ac84828501620001d9565b91505092915050565b6000620002c1620002d4565b9050620002cf82826200034e565b919050565b6000604051905090565b600067ffffffffffffffff821115620002fc57620002fb620003e2565b5b602082029050602081019050919050565b60006200031a8262000321565b9050919050565b600073ffffffffffffffffffffffffffffffffffffffff82169050919050565b600060ff82169050919050565b620003598262000411565b810181811067ffffffffffffffff821117156200037b576200037a620003e2565b5b80604052505050565b6000620003918262000341565b915060ff821415620003a857620003a7620003b3565b5b600182019050919050565b7f4e487b7100000000000000000000000000000000000000000000000000000000600052601160045260246000fd5b7f4e487b7100000000000000000000000000000000000000000000000000000000600052604160045260246000fd5b6000601f19601f8301169050919050565b6200042d816200030d565b81146200043957600080fd5b50565b620004478162000341565b81146200045357600080fd5b50565b61197e80620004666000396000f3fe608060405234801561001057600080fd5b506004361061009e5760003560e01c80636673e849116100665780636673e8491461014357806375e618c91461015f5780639b24b3b01461018f578063ac28eacd146101bf578063b9c78c2b146101ef5761009e565b80631783efc3146100a35780631c57d8ca146100bf5780632d69be98146100db57806343989f851461010b578063568ee82614610127575b600080fd5b6100bd60048036038101906100b89190611127565b61021f565b005b6100d960048036038101906100d491906111fe565b6102ce565b005b6100f560048036038101906100f09190611261565b61042f565b6040516101029190611620565b60405180910390f35b61012560048036038101906101209190611163565b610462565b005b610141600480360381019061013c9190611073565b610519565b005b61015d600480360381019061015891906110af565b610672565b005b6101796004803603810190610174919061104a565b610761565b6040516101869190611736565b60405180910390f35b6101a960048036038101906101a4919061104a565b61078e565b6040516101b691906116f2565b60405180910390f35b6101d960048036038101906101d4919061104a565b6107ae565b6040516101e691906115a3565b60405180910390f35b6102096004803603810190610204919061104a565b6107e1565b60405161021691906116f2565b60405180910390f35b81610228610801565b73ffffffffffffffffffffffffffffffffffffffff166003600083815260200190815260200160002060009054906101000a900473ffffffffffffffffffffffffffffffffffffffff1673ffffffffffffffffffffffffffffffffffffffff16146102bf576040517fbb9bf27800000000000000000000000000000000000000000000000000000000815260040160405180910390fd5b6102c98383610809565b505050565b82600073ffffffffffffffffffffffffffffffffffffffff16600260008360ff1660ff16815260200190815260200160002060009054906101000a900473ffffffffffffffffffffffffffffffffffffffff1673ffffffffffffffffffffffffffffffffffffffff16141561036f576040517f1a08ae0600000000000000000000000000000000000000000000000000000000815260040160405180910390fd5b61037a858585610918565b816003600087815260200190815260200160002060006101000a81548173ffffffffffffffffffffffffffffffffffffffff021916908373ffffffffffffffffffffffffffffffffffffffff1602179055508173ffffffffffffffffffffffffffffffffffffffff16600073ffffffffffffffffffffffffffffffffffffffff16867f0ba83579a0e79193ef649b9f5a8759d35af086ba62a3e207b52e4a8ae30d49e360405160405180910390a45050505050565b60026020528060005260406000206000915054906101000a900473ffffffffffffffffffffffffffffffffffffffff1681565b8561046b610801565b73ffffffffffffffffffffffffffffffffffffffff166003600083815260200190815260200160002060009054906101000a900473ffffffffffffffffffffffffffffffffffffffff1673ffffffffffffffffffffffffffffffffffffffff1614610502576040517fbb9bf27800000000000000000000000000000000000000000000000000000000815260040160405180910390fd5b610510878787878787610a74565b50505050505050565b81610522610801565b73ffffffffffffffffffffffffffffffffffffffff166003600083815260200190815260200160002060009054906101000a900473ffffffffffffffffffffffffffffffffffffffff1673ffffffffffffffffffffffffffffffffffffffff16146105b9576040517fbb9bf27800000000000000000000000000000000000000000000000000000000815260040160405180910390fd5b816003600085815260200190815260200160002060006101000a81548173ffffffffffffffffffffffffffffffffffffffff021916908373ffffffffffffffffffffffffffffffffffffffff1602179055508173ffffffffffffffffffffffffffffffffffffffff1661062a610801565b73ffffffffffffffffffffffffffffffffffffffff16847f0ba83579a0e79193ef649b9f5a8759d35af086ba62a3e207b52e4a8ae30d49e360405160405180910390a4505050565b600061067d8661078e565b9050600061068a87610761565b905060008160ff1614156106ca576040517f029f057900000000000000000000000000000000000000000000000000000000815260040160405180910390fd5b6000600260008360ff1660ff16815260200190815260200160002060009054906101000a900473ffffffffffffffffffffffffffffffffffffffff169050610716878488888886610b8f565b61071f86610edf565b877f102229041138505f4cecdadc8e3ac1cd92c55870c17371050fc00bdb088898018860405161074f9190611605565b60405180910390a25050505050505050565b60006001600083815260200190815260200160002060000160009054906101000a900460ff169050919050565b600060016000838152602001908152602001600020600101549050919050565b60036020528060005260406000206000915054906101000a900473ffffffffffffffffffffffffffffffffffffffff1681565b600060016000838152602001908152602001600020600201549050919050565b600033905090565b600061081483610761565b60ff16141561084f576040517f029f057900000000000000000000000000000000000000000000000000000000815260040160405180910390fd5b6001600083815260200190815260200160002073__$0c6eb7207c37accf1552a1c47686411ac0$__63168703fa9091836040518363ffffffff1660e01b815260040161089c92919061163b565b60006040518083038186803b1580156108b457600080fd5b505af41580156108c8573d6000803e3d6000fd5b5050505060006108d78361078e565b9050827f03fd27265b7dd1f55558bedc22a58fa3b10afb1be776e614bd5a7ba7b9499406838360405161090b92919061170d565b60405180910390a2505050565b7f30644e72e131a029b85045b68181585d2833e84879b9709143e1f593f00000018310610971576040517fa61c78ca00000000000000000000000000000000000000000000000000000000815260040160405180910390fd5b600061097c84610761565b60ff16146109b6576040517f8121725b00000000000000000000000000000000000000000000000000000000815260040160405180910390fd5b6001600084815260200190815260200160002073__$0c6eb7207c37accf1552a1c47686411ac0$__63b4bdd117909184846040518463ffffffff1660e01b8152600401610a05939291906116bb565b60006040518083038186803b158015610a1d57600080fd5b505af4158015610a31573d6000803e3d6000fd5b50505050827fc3082aa494e9088c2c9f0fb62a0b6bd46e6699acb94cfba35be29b95a93f68c88383604051610a67929190611751565b60405180910390a2505050565b6000610a7f87610761565b60ff161415610aba576040517f029f057900000000000000000000000000000000000000000000000000000000815260040160405180910390fd5b6001600087815260200190815260200160002073__$0c6eb7207c37accf1552a1c47686411ac0$__630629596f909187878787876040518763ffffffff1660e01b8152600401610b0f96959493929190611664565b60006040518083038186803b158015610b2757600080fd5b505af4158015610b3b573d6000803e3d6000fd5b505050506000610b4a8761078e565b9050867fe270325ded177064d7bda473e6519ef40a291058c41286f71a6e4872f1e9ab5c8783604051610b7e92919061170d565b60405180910390a250505050505050565b60008085815260200190815260200160002060009054906101000a900460ff1615610be6576040517f948d067400000000000000000000000000000000000000000000000000000000815260040160405180910390fd5b6000610bf187610f0d565b90508173ffffffffffffffffffffffffffffffffffffffff16635fe8c13b604051806040016040528086600060088110610c54577f4e487b7100000000000000000000000000000000000000000000000000000000600052603260045260246000fd5b6020020135815260200186600160088110610c98577f4e487b7100000000000000000000000000000000000000000000000000000000600052603260045260246000fd5b60200201358152506040518060400160405280604051806040016040528089600260088110610cf0577f4e487b7100000000000000000000000000000000000000000000000000000000600052603260045260246000fd5b6020020135815260200189600360088110610d34577f4e487b7100000000000000000000000000000000000000000000000000000000600052603260045260246000fd5b60200201358152508152602001604051806040016040528089600460088110610d86577f4e487b7100000000000000000000000000000000000000000000000000000000600052603260045260246000fd5b6020020135815260200189600560088110610dca577f4e487b7100000000000000000000000000000000000000000000000000000000600052603260045260246000fd5b6020020135815250815250604051806040016040528088600660088110610e1a577f4e487b7100000000000000000000000000000000000000000000000000000000600052603260045260246000fd5b6020020135815260200188600760088110610e5e577f4e487b7100000000000000000000000000000000000000000000000000000000600052603260045260246000fd5b602002013581525060405180608001604052808c81526020018b81526020018781526020018a8152506040518563ffffffff1660e01b8152600401610ea694939291906115be565b60006040518083038186803b158015610ebe57600080fd5b505afa158015610ed2573d6000803e3d6000fd5b5050505050505050505050565b600160008083815260200190815260200160002060006101000a81548160ff02191690831515021790555050565b6000600882604051602001610f229190611588565b6040516020818303038152906040528051906020012060001c901c9050919050565b600081359050610f53816118ec565b92915050565b600081905082602060080282011115610f7157600080fd5b92915050565b60008083601f840112610f8957600080fd5b8235905067ffffffffffffffff811115610fa257600080fd5b602083019150836020820283011115610fba57600080fd5b9250929050565b60008083601f840112610fd357600080fd5b8235905067ffffffffffffffff811115610fec57600080fd5b60208301915083602082028301111561100457600080fd5b9250929050565b60008135905061101a81611903565b92915050565b60008135905061102f8161191a565b92915050565b60008135905061104481611931565b92915050565b60006020828403121561105c57600080fd5b600061106a84828501611020565b91505092915050565b6000806040838503121561108657600080fd5b600061109485828601611020565b92505060206110a585828601610f44565b9150509250929050565b600080600080600061018086880312156110c857600080fd5b60006110d688828901611020565b95505060206110e78882890161100b565b94505060406110f888828901611020565b935050606061110988828901611020565b925050608061111a88828901610f59565b9150509295509295909350565b6000806040838503121561113a57600080fd5b600061114885828601611020565b925050602061115985828601611020565b9150509250929050565b6000806000806000806080878903121561117c57600080fd5b600061118a89828a01611020565b965050602061119b89828a01611020565b955050604087013567ffffffffffffffff8111156111b857600080fd5b6111c489828a01610f77565b9450945050606087013567ffffffffffffffff8111156111e357600080fd5b6111ef89828a01610fc1565b92509250509295509295509295565b6000806000806080858703121561121457600080fd5b600061122287828801611020565b945050602061123387828801611035565b935050604061124487828801611020565b925050606061125587828801610f44565b91505092959194509250565b60006020828403121561127357600080fd5b600061128184828501611035565b91505092915050565b60006112968383611338565b60408301905092915050565b60006112ae838361152e565b60208301905092915050565b60006112c68383611579565b60208301905092915050565b6112db8161185c565b82525050565b6112ea816117a2565b6112f481846117f7565b92506112ff8261177a565b8060005b83811015611330578151611317878261128a565b9650611322836117c3565b925050600181019050611303565b505050505050565b611341816117ad565b61134b8184611802565b925061135682611784565b8060005b8381101561138757815161136e87826112a2565b9650611379836117d0565b92505060018101905061135a565b505050505050565b611398816117ad565b6113a2818461180d565b92506113ad82611784565b8060005b838110156113de5781516113c587826112a2565b96506113d0836117d0565b9250506001810190506113b1565b505050505050565b6113ef816117b8565b6113f98184611818565b92506114048261178e565b8060005b8381101561143557815161141c87826112a2565b9650611427836117dd565b925050600181019050611408565b505050505050565b60006114498385611823565b93507f07ffffffffffffffffffffffffffffffffffffffffffffffffffffffffffffff83111561147857600080fd5b6020830292506114898385846118d3565b82840190509392505050565b60006114a18385611834565b93506114ac82611798565b8060005b858110156114e5576114c28284611845565b6114cc88826112ba565b97506114d7836117ea565b9250506001810190506114b0565b5085925050509392505050565b6114fb8161186e565b82525050565b61151261150d8261186e565b6118e2565b82525050565b611521816118af565b82525050565b8082525050565b61153781611898565b82525050565b61154681611898565b82525050565b61155581611898565b82525050565b611564816118a2565b82525050565b611573816118a2565b82525050565b611582816118a2565b82525050565b60006115948284611501565b60208201915081905092915050565b60006020820190506115b860008301846112d2565b92915050565b6000610180820190506115d4600083018761138f565b6115e160408301866112e1565b6115ee60c083018561138f565b6115fc6101008301846113e6565b95945050505050565b600060208201905061161a60008301846114f2565b92915050565b60006020820190506116356000830184611518565b92915050565b60006040820190506116506000830185611527565b61165d602083018461154c565b9392505050565b60006080820190506116796000830189611527565b611686602083018861154c565b818103604083015261169981868861143d565b905081810360608301526116ae818486611495565b9050979650505050505050565b60006060820190506116d06000830186611527565b6116dd602083018561156a565b6116ea604083018461154c565b949350505050565b6000602082019050611707600083018461153d565b92915050565b6000604082019050611722600083018561153d565b61172f602083018461153d565b9392505050565b600060208201905061174b600083018461155b565b92915050565b6000604082019050611766600083018561155b565b611773602083018461153d565b9392505050565b6000819050919050565b6000819050919050565b6000819050919050565b6000819050919050565b600060029050919050565b600060029050919050565b600060049050919050565b6000602082019050919050565b6000602082019050919050565b6000602082019050919050565b6000602082019050919050565b600081905092915050565b600081905092915050565b600081905092915050565b600081905092915050565b600082825260208201905092915050565b600082825260208201905092915050565b60006118546020840184611035565b905092915050565b600061186782611878565b9050919050565b6000819050919050565b600073ffffffffffffffffffffffffffffffffffffffff82169050919050565b6000819050919050565b600060ff82169050919050565b60006118ba826118c1565b9050919050565b60006118cc82611878565b9050919050565b82818337600083830152505050565b6000819050919050565b6118f58161185c565b811461190057600080fd5b50565b61190c8161186e565b811461191757600080fd5b50565b61192381611898565b811461192e57600080fd5b50565b61193a816118a2565b811461194557600080fd5b5056fea264697066735822122062ec3b929cab9ecdc37150a148f2ddbb3d3a3b4d823ad249f28ee5faecb9cfd864736f6c63430008040033",
  "linkReferences": {
    "@zk-kit/incremental-merkle-tree.sol/IncrementalBinaryTree.sol": {
      "IncrementalBinaryTree": [
        {
          "length": 20,
          "start": 3274
        },
        {
          "length": 20,
          "start": 3633
        },
        {
          "length": 20,
          "start": 3893
        }
      ]
    }
  },
  "deployedLinkReferences": {
    "@zk-kit/incremental-merkle-tree.sol/IncrementalBinaryTree.sol": {
      "IncrementalBinaryTree": [
        {
          "length": 20,
          "start": 2148
        },
        {
          "length": 20,
          "start": 2507
        },
        {
          "length": 20,
          "start": 2767
        }
      ]
    }
  }
}